:04000000020029329F
:03000B000200E30D
:0100130032BA
:01001B0032B2
:0300230002060BC7
:20008200753800754C00754D00755600755700755800755900755A00755B00755C00755DBA
:2000A20000E4F55EF55FF560F5627868767478697665786A7673786B7674786C760A786DA0
:2000C2007600786E7600786F760078707600787176007872760078737600C205D20F0200C7
:0100E20026F7
:030026000202765D
:2000E300C0E0C0F0C0D075D0087F0074035540FE43B03C853FF0E54084ADF0BD04005017F6
:20010300EE2434F987A08EF005F07404800225E0D5F0FBF4FE52B005407464B541028003B8
:2001230002022175410074E8B5425D7403B54358E4F542F543B208D20B7488B5444A7413BA
:20014300B54545E4F544F545B2077420B5482C744EB5492774022546F546E43547F547C32E
:200163007498954674BA8547F063F08095F0500675469875473AE4F548F549C3E548948849
:20018300E549648094939206E5512551FEA2B1E433FD4EF551E551700DD211201017E553D1
:2001A300FE04F553800F30110C2010027F01C211C210755300E55324AF5007D210755300EB
:2001C3007F02E55225E0FEA2B0E433FD4EF552E552700DD213201217E554FE04F554800F71
:2001E30030130C2012027F03C213C212755400E55424AF5007D2127554007F04BF020C30F5
:200203001309D2127554007F05800DBF040A301107D2107553007F05E55570028F550541E8
:2002230074012542F542E43543F54374012544F544E43545F54574012548F548E43549F5EF
:2002430049E54A454B6016154A74FFB54A02154BE54A454B7007E5557003755506D0D0D0C7
:20026300F0D0E032758AA4758CFFC28DD28CD2A9D2AF224391C04392C01207BE1206D81239
:20028300026712066185A89975650075660C75670090006875F0401209BE75650075660CDF
:2002A30075670090007475F0401209BE900A4075F080120636120613A2079209A208920A1B
:2002C300300B52855563755500E53E5403600280177582061206C0E582FFC423541FF53F4B
:2002E300C394045003753F0412077F85264E303705534E1F8003534E3F303703203504C2F0
:20030300148002D214A214920E747F5525F54F747F5524F550854E56854F5785505830985D
:200323005A859961C298E5616051E5382474F8A661E5382474F98707BF2A3ED205756200CB
:20034300E5622474FDE43400FE7F408D828E838FF01209F8FDE5622468F8A605E5622474E5
:20036300F87600056274F4256250D575380090006875F04012063680020538200B03020208
:20038300C3C200C201C202C20375331075321075311075301020050302047E78688607BFD7
:2003A30048028003020433786B8607BF4D028003020433786E8607BF537678698682786A34
:2003C30086651205FA858239786C8682786D86651205FA85823A786F8682787086651205F7
:2003E300FA85823B8539821205A685825685566475820212079E853A821205A68582578594
:20040300576475820112079E853B821205A6858258853B8212098E85826475820012079E0D
:20042300E4F546F54775822B120629300802D20178688607BF5742786B8607BF543B786E85
:200443008607BF553478698682786A86651205FA85823C786C8682786D86651205FA8582E6
:200463003D853C821205A6858259853D821205A685825A75826F120629C205C3741E9546DC
:2004830074808547F063F08095F0500BA208920A300A08D2008004A207920AAF4DBF000216
:2004A30080077405B54D30800D7401B56329754D05754C038021E54A454B7006754AFF7530
:2004C3004BFF7401B5630280057406B56309E4F54AF54BF54DF54C7405B54D02800C74AB12
:2004E3002558500BE55824A64005754C038003754C00AF4CBF000280077403B54C5480340A
:20050300E556C4540FF55B303707E55B7003755B10855B30740F5556F531E557C4540FFF5F
:200523008F32740F5557F533300702D201300722D202801EE559C4540FFF8F30740F555975
:20054300F531E55AC4540FFF8F32740F555AF533D202D21410AF02C214E530900A1893FF48
:2005630030000353077F8F34E531900A1893FF30010353077F8F35E533900A1893FF3003EF
:200583000353077F8F37E532900A2C93FF30020353077F8F36A21492AF43C110C20B053E59
:2005A3000202C3AF827E007D00EF602675F00AEF84ACF08D030DEB2B25E0FB8BF005F0EC43
:2005C300800225E0D5F0FBFC420675F00AEF84FF80D78E8222AF82BF0A00E433FE6006743A
:2005E300302FF58222EE700BEF24F0400674372FF5822275822122E58224D075F00AA4FF34
:20060300E56524D02FF582221099028002C2043275650075660C75670090007475F0401254
:2006230009BE75380022AF822004FD8FE0D20485E09922AD82AE83AFF08D828E838FF012BA
:2006430009F8FC60188C820DBD00010EC007C006C005120629D005D006D00780DC2285A281
:20066300E0AFE0743F5FF5E043E04085E0A275985075D7D075D6FF758E14438E01D2AFD2B8
:06068300ACC298C29922EE
:200A1800C0F9A4B0999282F880908883C6A1868EFFBF8B7FC0CFA4868B9290C78082819866
:0F0A3800F08CB0B1FFBF997F72657365740A00CF
:20068900AF828FF005F07401800225E0D5F0FB429D75BD0075BC80221206C0AF82E4CF252B
:2006A900E0CF33CF25E0CF33FE740355BE7C004FF582EC4EF58322AF8274E84FF5BC00E569
:0F06C900BC30E4FBAFBC74EF5FF5BC85BD822293
:2006D80075822012075EAF82BFA50D75822112075EAF82BF5A0280157564A57582201207B4
:2006F8009E75645A75822112079E02071B7F227E00EE242CF98F8212075EE582F70F0EBE07
:2007180004EF227F227E00EE242CF987648F8212079E0F0EBE04F022C007E5827F080000FD
:20073800139291D2920000C292DFF3D00722C00774007F080000A29113D2920000C292DF49
:20075800F3F582D00722C007E5822582FF430781C290C292D2908F82120730120746AF828D
:20077800C2908F82D00722C290C292D2907582BF1207307F00EF2424F9120746E582F70F83
:20079800BF08F2C29022C007E5822582FF74804FF582C290C292D2901207308564821207B1
:2007B80030C290D0072275820012075EAF8275640075820712079E747F5FF56475820002D5
:2007D800079E303725741F5526F58212097CAF82BF0C0720350B7F008007303504740C2F33
:2007F800FF8F8212098EAE82802B743F5526F58212097CAF827E80BF0C004006EF24F4FFCB
:200818007EA0EF70027F0C8F82C00612098EAF82D006EF42068E6475820202079E20371EF1
:20083800743F5526F58212097CAF82BF170050030F80027F008F8212098EAE82802A741FD3
:200858005526F58212097CAF82BF0C0050030F80027F01BF0C02B2358F8212098EE582447E
:2008780080FE3035034306208E6475820202079E747F5525F58212097CAF82BF3B00500386
:200898000F80027F008F8212098E85826475820102079E741F5528F58212097CAF82BF0C52
:2008B8000050030F80027F018F8212098E85826475820402079E743F5527F58212097CAF09
:2008D80082BF1F0050030F80027F018F8212098E85826475820302079E743F552DFFBF3B48
:2008F8000050030F80027F00AE2D74C05EF52DEF452DF52D02071BE52CC423541FFFBF1707
:200918000050030F80027F00EFC40354F8FFAE2C74075EF52CEF452CF52C02071BB26102CD
:20093800071BB26E02071B7407552EFF0F530707AE2E5306F8EF4EF52E02071BB260020700
:200958001BAF29BF070050030F80027F018F6475820512079E8F2922752400756400758279
:200978000002079EE582FFC4540F75F00AA4FE740F5F2EF58222AF8275F00AEF84C454F056
:20099800FE75F00AEF84E5F04EF58222AF8275F00AEF8475F00A8485F08222AF8275F00AE4
:0609B800EF8485F08222AD
:06005800E478FFF6D8FD7C
:1F09BE00AC82AD83AE66AF67BE0004EF600C1F0FE5651209DDA3DEFADFF88C828D832273
:200036007900E94400601B7A00900A47780175A000E493F2A308B8000205A0D9F4DAF2751F
:02005600A0FF09
:1B09DD0020F71130F6138883A88220F509F6A8837583002280FEF280F5F02219
:20005E007800E84400600A790175A000E4F309D8FC7800E84400600C7900900001E4F0A3A0
:04007E00D8FCD9FAD7
:0D00290075817F120A14E582600302002633
:1C09F80020F71430F6148883A88220F507E6A88375830022E280F7E49322E0220E
:040A140075820022C5
:00000001FF
